:100000000C94F8000C9420010C9420010C94200115
:100010000C9420010C9420010C9420010C942001DC
:100020000C9420010C9420010C941C040C942001CD
:100030000C9471090C9420010C9420010C94200163
:100040000C9420010C9420010C9420010C942001AC
:100050000C9420010C9420010C9420010C94F402C7
:100060000C9420010C9420010C9420010C9420018C
:100070000C9420010C9420010C9420010C9420017C
:100080000C9420010C9420010C9420010C9420016C
:100090000C9420010C9420010C9420010C9420015C
:1000A0000C9420010C9420010C942001000000000D
:1000B000240027002A002D00300000000000250049
:1000C00028002B002E003100000000002300260035
:1000D00029002C002F000404040204040304040279
:1000E00002020202060606060606020503020405CF
:1000F0000408014020804002408001040802804042
:10010000201002011040802010040000000C000E9E
:1001100000000001000000000000000000000000DE
:100120000B000000070605040100080E0F10000177
:10013000000004050607202122232425271E1F0670
:1001400000FF0901A1010902150025FF75089508A6
:1001500081020903150025FF750895089102C01258
:1001600001100100000008EB034F20010001020014
:100170000109022900010100C03209040000020344
:100180000000000921110100012220000705810360
:10019000080001070502030800010403090418030D
:1001A0004400650061006E002000430061006D00A6
:1001B00065007200610000002C034C0055004600F1
:1001C00041002000470065006E0065007200690074
:1001D00063002000480049004400200044006500FE
:1001E0006D006F000000220168019B019602CE02A3
:1001F00011241FBECFEFDAE0DEBFCDBF11E0A0E0DB
:10020000B1E0E8E1F7E102C005900D92A031B1073D
:10021000D9F712E0A0E1B1E001C01D92A436B10708
:10022000E1F711E0C0EFD1E004C02297FE010E9487
:10023000EE0AC63ED107C9F70E94A3020C948A0BAE
:100240000C94000080E090E0A8ECB2EC80931001E8
:1002500090931101A0931201B09313010895EF92AE
:10026000FF920F931F93FC01162FF42EE22E0083B2
:10027000118280E090E0A0E0B0E082839383A483C9
:10028000B58386839783A087B18762877387448706
:10029000558726873787862F61E00E94E4018F2DDE
:1002A00061E00E94E4018E2D61E00E94E401812F53
:1002B00060E00E9461028F2D60E00E9461028E2D3D
:1002C00060E00E9461021F910F91FF90EF900895EE
:1002D0000F9380E090E0A8ECB2EC8093340190930F
:1002E0003501A0933601B093370184E191E063E0DA
:1002F00070E044E050E025E030E001E00E942F0192
:1003000084E291E06BE070E04AE050E029E030E008
:100310000E942F010F91089584EC91E040E052EC8F
:1003200061E070E00E94CD0280E00E94AB010E947B
:10033000B3030895089580E090E0A8ECB2EC8093B8
:10034000380190933901A0933A01B0933B0108958D
:100350000E948C010895E82FF0E0EC5DFE4FE491DF
:10036000F0E0E25DFE4FE4918091040190E026E030
:10037000880F991F2A95E1F780937C0090917C006B
:100380008E2F8F71892B80937C00E5FF04C08091B4
:100390007B00806203C080917B008F7D80937B0017
:1003A00080917A00806480937A0080917A0086FD43
:1003B000FCCF2091780040917900942F80E030E0CC
:1003C000282B392BC9010895482F50E0CA018051CC
:1003D0009F4FFC0124914A525F4FFA018491882378
:1003E000C1F0E82FF0E0EE0FFF1FE455FF4FA5919D
:1003F000B491662341F49FB7F8948C9120958223A1
:100400008C939FBF08959FB7F8948C91822B8C9307
:100410009FBF08958730A9F1883080F48330E1F0E0
:10042000843030F4813011F1823009F049C021C0AC
:100430008430B1F0863009F043C01FC08A3079F1B2
:100440008B3028F4883019F18930D1F524C08B30F5
:1004500061F18C30A9F52FC0809180008F7703C0A7
:10046000809180008F7D80938000089584B58F7780
:1004700002C084B58F7D84BD08958091B0008F77D0
:1004800003C08091B0008F7D8093B000089580916B
:1004900090008F7707C0809190008F7D03C080917E
:1004A0009000877F8093900008958091C0008F779F
:1004B0008093C00008958091C0008F7D8093C0001C
:1004C0000895FF920F931F93F62E482F50E0CA0114
:1004D000865F9E4FFC012491CA0180519F4FFC0111
:1004E00014914A525F4FFA0104910023D9F022235C
:1004F00019F0822F0E940A02E02FF0E0EE0FFF1F9A
:10050000E654FF4FA591B491FF2031F49FB7F894C2
:100510008C911095812304C09FB7F8948C91812B06
:100520008C939FBF1F910F91FF90089580E090E002
:10053000A8ECB2EC80933C0190933D01A0933E0166
:10054000B0933F0108950E943C0384EC91E040E8A1
:1005500055E260E070E00E94CD020E94A8010E9476
:100560009A01FDCF462FE091C001F091C101CF016A
:10057000019660E870E00E94880A9C018091C201A7
:100580009091C3012817390739F0E05CFE4F408392
:100590003093C1012093C0010895089589E091E04E
:1005A0009093C5018093C40180E491E09093C801C9
:1005B0008093C7010895CB010E9448080895CB019C
:1005C0000E9448080895DF93CF9300D0CDB7DEB7DF
:1005D0001A8219826983CE0101960E9448080F9001
:1005E0000F90CF91DF9108951F920F920FB60F9247
:1005F00011242F933F938F939F93AF93BF93809139
:10060000CD019091CE01A091CF01B091D001309158
:10061000D1010196A11DB11D232F2D5F2D3720F093
:100620002D570196A11DB11D2093D1018093CD01BD
:100630009093CE01A093CF01B093D0018091C901D6
:100640009091CA01A091CB01B091CC010196A11D5E
:10065000B11D8093C9019093CA01A093CB01B093BF
:10066000CC01BF91AF919F918F913F912F910F90AE
:100670000FBE0F901F90189584B7877F84BF88E1C5
:100680000FB6F89480936000109260000FBE80E077
:1006900090E020E80FB6F894209361008093610009
:1006A0000FBE0E940204789484B5826084BD84B534
:1006B000816084BD85B58B7F85BD85B5826085BD34
:1006C00085B5816085BDEEE6F0E080818160808344
:1006D00084B58F7B84BD85B5877F85BDE0ECF0E078
:1006E00080818F7B808380818F7E80838081826008
:1006F0008083808181608083E1ECF0E08081877F6E
:10070000808380818B7F808380818D7F80838081C7
:1007100081608083E3ECF0E080818B7F8083A2ECBA
:10072000B0E08C9181608C9380818D7F808380810B
:1007300081608083EAE7F0E080818460808380814B
:1007400082608083808181608083808180688083F3
:1007500090EC88E10FB6F894A89580936000909390
:1007600060000FBE0895009729F0BC0180E090E082
:100770000E944A0B0895EF92FF920F931F930E94DD
:100780000F040E94170408ED10E0F8018081982FF3
:100790009F7790838068808380818F7D808319BC60
:1007A00010925B0210925902109258021092570256
:1007B00080EEE82EF12CF70180818B7F8083F80199
:1007C00080818160808380E060E042E00E94E109F6
:1007D000E1EEF0E080818E7F8083E2EEF0E08081C8
:1007E00081608083808188608083F70180818E7F33
:1007F0008083F8018081806180831F910F91FF9039
:10080000EF900895E7EDF0E08081816080838AE4D5
:1008100082BF81E080935A020E94BB030895E8EDF5
:10082000F0E080818E7F80831092E2000895109224
:10083000DA001092E10008951F920F920FB60F9206
:1008400011242F933F934F935F936F937F938F93D5
:100850009F93AF93BF93EF93FF938091E10082FF4B
:100860000BC08091E20082FF07C08091E1008B7F86
:100870008093E1000E9433088091DA0080FF20C05D
:100880008091D80080FF1CC08091DA008E7F809319
:10089000DA008091D90080FF0EC080E189BD89B562
:1008A000826089BD09B400FEFDCF81E080935B02C8
:1008B0000E94750805C019BC10925B020E94760860
:1008C0008091E10080FF19C08091E20080FF15C097
:1008D0008091E2008E7F8093E2008091E20080614F
:1008E0008093E2008091D80080628093D80019BC88
:1008F00085E080935B020E9433088091E10084FFD1
:100900002FC08091E20084FF2BC080E189BD89B5B2
:10091000826089BD09B400FEFDCF8091D8008F7D33
:100920008093D8008091E1008F7E8093E1008091D8
:10093000E2008F7E8093E2008091E20081608093EC
:10094000E20080915902882331F48091E30087FD11
:1009500002C081E001C084E080935B020E94330802
:100960008091E10083FF24C08091E20083FF20C0DA
:100970008091E100877F8093E10082E080935B02B9
:10098000109259028091E1008E7F8093E100809166
:10099000E2008E7F8093E2008091E200806180938C
:1009A000E20080E060E042E00E94E1090E9433083A
:1009B000FF91EF91BF91AF919F918F917F916F9137
:1009C0005F914F913F912F910F900FBE0F901F900D
:1009D00018950F931F93DF93CF93CDB7DEB7AC97E6
:1009E0000FB6F894DEBF0FBECDBF8091F1008093AB
:1009F0005C028091F10080935D028091F100909102
:100A0000F100EEE5F2E080935E0290935F02809148
:100A1000F1009091F1008093600293838091F10046
:100A20009091F1008093620295830E941509809154
:100A3000E80083FF41C180915C0230915D02353056
:100A400009F487C0363040F43130C9F1313070F0EC
:100A5000333009F031C133C0383009F4FCC03930CB
:100A600009F40CC1363009F027C19AC0803821F052
:100A7000823809F021C108C0909157028091580234
:100A8000882399F0926011C08091600287708093F2
:100A9000E9008091EB0090E025E0969587952A95F6
:100AA000E1F7982F91701092E9008091E800877F1C
:100AB0008093E8009093F1001092F100D7C0882352
:100AC00019F0823009F0F8C090E08F7190700097B3
:100AD00021F0029709F0F0C00CC080915E028130D5
:100AE00009F0EAC010925802333069F58093580239
:100AF0002AC080915E02882331F520916002277020
:100B000009F4DAC02093E9008091EB0080FF1BC05C
:100B1000333021F48091EB00806213C08091EB00B0
:100B200080618093EB0081E090E002C0880F991F04
:100B30002A95E2F78093EA001092EA008091EB0098
:100B400088608093EB001092E9008091E800877F35
:100B500090C0882309F0B0C010915E021F770FB7D4
:100B6000F8948091E800877F8093E8000E94160A3D
:100B70008091E80080FFFCCF8091E3008078812B9A
:100B80008093E3008091E30080688093E300112369
:100B900011F482E001C083E080935B020FBF8CC040
:100BA0008058823008F088C080915E0290915F0288
:100BB00023E08C3D920709F034C083E08C838AE205
:100BC0008B837FB7F894DE0115966EE040E050E02D
:100BD00011E2E62FF0E010935700849140FF03C02C
:100BE00082958F706F5F8F70282F30E08A3018F0F9
:100BF000C901C79602C0C901C0968D939D934F5FEE
:100C00005F4F4431510529F77FBF8091E800877F0E
:100C10008093E800CE0103966AE270E00E947506B8
:100C200014C060916002AE014F5F5F4F0E94A10946
:100C3000BC01009709F440C08091E800877F809351
:100C4000E80089819A810E9421078091E8008B77D2
:100C50008093E80031C0803879F58091E800877F83
:100C60008093E800809159028093F1008091E80020
:100C70008E778093E8000E94160A1EC08823E1F454
:100C800090915E029230C0F48091E800877F80935B
:100C9000E800909359020E94160A80915902882315
:100CA00031F48091E30087FD02C081E001C084E05F
:100CB00080935B020E9466098091E80083FF0AC06E
:100CC0008091EB0080628093EB008091E800877F49
:100CD0008093E800AC960FB6F894DEBF0FBECDBF90
:100CE000CF91DF911F910F9108959C014091620275
:100CF000509163024617570718F4F90190E045C078
:100D00006115710511F0AB01F8CF8091E8008E7785
:100D10008093E80040E050E0F0CF80915B028823B0
:100D200009F445C0853009F444C08091E80083FF90
:100D300002C081E008958091E80082FD32C0809178
:100D4000E80080FF22C08091F3009091F200782F9C
:100D500060E0292F30E0262B372B07C0819180934C
:100D6000F100415050402F5F3F4F4115510519F0A0
:100D70002830310598F390E02830310509F491E0EE
:100D80008091E8008E778093E8004115510529F69F
:100D9000992319F606C080915B02882341F08530C3
:100DA00041F08091E80082FFF6CF80E0089582E074
:100DB000089583E008959C016115710529F48091DF
:100DC000E8008B778093E800F90127C080915B02EF
:100DD000882399F1853099F18091E80083FF02C062
:100DE00081E008958091E80082FFF0CF06C08091F5
:100DF000F10081936150704059F02091F30080918F
:100E0000F200322F20E090E0822B932B892B79F790
:100E10008091E8008B778093E80061157105B1F649
:100E200006C080915B02882341F0853041F08091BB
:100E3000E80080FFF6CF80E0089582E0089583E027
:100E400008959C0140916202509163024617570732
:100E500018F4F90190E046C06115710511F0AB017D
:100E6000F8CF8091E8008E778093E80040E050E072
:100E7000F0CF80915B02882309F447C0853009F4E4
:100E800046C08091E80083FF02C081E00895809110
:100E9000E80082FD34C08091E80080FF23C080918B
:100EA000F3009091F200782F60E0292F30E0262B9C
:100EB000372B08C084918093F10031964150504007
:100EC0002F5F3F4F4115510519F02830310590F340
:100ED00090E02830310509F491E08091E8008E77A8
:100EE0008093E8004115510521F6992309F0C1CFFF
:100EF00006C080915B02882341F0853041F08091EB
:100F0000E80082FFF6CF80E0089582E0089583E054
:100F10000895BF92CF92DF92EF92FF920F931F93AB
:100F2000CF93DF93182F092F7B016A010E94370AA4
:100F3000B82E8823C1F5812F902F9C01E901C1149F
:100F4000D10439F0F60180819181E81AF90AC80FBD
:100F5000D91F00E010E024C08091E80085FD18C092
:100F60008091E8008B778093E800C114D10449F0A8
:100F7000F60180819181800F911F9183808385E0AC
:100F800013C00E9434080E94370A882349F00CC01D
:100F90008091F10089930894E108F1080F5F1F4FD9
:100FA000E114F104C9F68B2DDF91CF911F910F91C0
:100FB000FF90EF90DF90CF90BF900895BF92CF92B7
:100FC000DF92EF92FF920F931F93CF93DF93182F2F
:100FD000092F7B016A010E94370AB82E8823C1F5C8
:100FE000812F902F9C01E901C114D10439F0F60141
:100FF00080819181E81AF90AC80FD91F00E010E03A
:1010000024C08091E80085FD18C08091E8008E77AB
:101010008093E800C114D10449F0F60180819181E8
:10102000800F911F9183808385E013C00E94340854
:101030000E94370A882349F00CC089918093F100FF
:101040000894E108F1080F5F1F4FE114F104C9F69D
:101050008B2DDF91CF911F910F91FF90EF90DF903B
:10106000CF90BF90089508951F9380915B028823CD
:1010700069F01091E9001092E9008091E80083FF87
:1010800002C00E94E90417701093E9001F910895AF
:10109000EF92FF921F93CF93DF937C01C091540294
:1010A000D091550240E015C0E0915202F0915302F8
:1010B000CF01019660E870E00E94880A8C179D07B6
:1010C00039F0EE52FE4F10839093530280935202F8
:1010D0004F5FF701E40FF11D1081112329F7DF9114
:1010E000CF911F91FF90EF90089508950895CF93A9
:1010F000DF93EC0181EB888321E030E0E091540242
:10110000F09155028091520290915302DE01A20F9C
:10111000B31F8E179F0711F41C9216C0EE52FE4F9C
:1011200080818C938091540290915502019660E8E1
:1011300070E00E94880A90935502809354022F5FBA
:101140003F4F28303105D1F6DF91CF910895FC0152
:101150008081813A19F0813BA9F40FC081818130EF
:1011600089F4F89498E088E10FB6F894A8958093F4
:101170006000909360000FBEFFCF84EC91E061812E
:101180000E94B20208950F931F93DF93CF93CDB7C0
:10119000DEB728970FB6F894DEBF0FBECDBF82E052
:1011A0008093E9008091E80082FF19C08091E800F7
:1011B00085FF10C08E010F5F1F4FC80168E070E00F
:1011C00040E050E00E948907C8010E94A70881E022
:1011D000809356028091E8008B778093E80081E04D
:1011E0008093E9008091E80080FF14C08E010F5FBA
:1011F0001F4FC8010E947708C80168E070E040E016
:1012000050E00E94DE078091E8008E778093E8002E
:101210001092560228960FB6F894DEBF0FBECDBFCF
:10122000CF91DF911F910F9108950F931F93DF933B
:10123000CF93CDB7DEB728970FB6F894DEBF0FBEB9
:10124000CDBF80915D02813019F08930A1F51AC0BF
:1012500080915C02813A79F58E010F5F1F4FC801C2
:101260000E9477088091E800877F8093E800C8019A
:1012700068E070E00E9475068091E8008B778093AB
:10128000E80019C080915C028132A9F48091E800E5
:10129000877F8093E8008E010F5F1F4FC80168E0D1
:1012A00070E00E94DB068091E8008E778093E80072
:1012B000C8010E94A70828960FB6F894DEBF0FBE9B
:1012C000CDBFCF91DF911F910F91089581E061EC27
:1012D00042E00E94E10982E060EC42E00E94E10904
:1012E00008951F920F920FB60F9211242F933F93E0
:1012F0004F935F936F937F938F939F93AF93BF931E
:10130000EF93FF930E94C3080E94340890EC88E199
:101310000FB6F894A89580936000909360000FBE7C
:10132000FF91EF91BF91AF919F918F917F916F91BD
:101330005F914F913F912F910F900FBE0F901F9093
:101340001895DA019330B1F0943028F4913041F0DF
:10135000923079F50AC0913211F1923251F524C0E0
:10136000EFE5F1E022E130E028C0E1E7F1E029E239
:1013700030E023C0813049F0813018F08230C9F468
:101380000AC0EAE9F1E0849103C0EEE9F1E084915A
:10139000282F30E012C0E8EBF1E08491F9CFE3E8C8
:1013A000F1E029E030E009C0EFE3F1E020E230E0D5
:1013B00004C0E0E0F0E020E030E0ED93FC93C901F0
:1013C0000895382F282F2CC02093E900231721F4EB
:1013D000762F942F50E006C07091EC009091ED00B4
:1013E0005091F00091FF1BC08091EB008E7F8093A5
:1013F000EB008091ED0082708093ED008091EB0016
:1014000081608093EB007093EC009093ED0050931B
:10141000F0008091EE0087FD02C080E008952F5F0C
:10142000273090F23093E90081E0089580915C02CA
:1014300088239CF404C080915B028823B9F08091DA
:10144000E80082FFF8CF8091E8008B778093E80076
:10145000089580915B02882349F08091E80080FF25
:10146000F8CF8091E8008E778093E800089540914E
:10147000E4005091E50024E68091EC0080FF05C077
:101480008091E80080FF05C022C08091E80082FDC5
:101490001EC080915B02882311F482E0089585309C
:1014A00011F483E008958091EB0085FF02C081E094
:1014B00008958091E4009091E50084179507E1F28A
:1014C000222311F484E008952150AC01D5CF80E0AF
:1014D0000895629FD001739FF001829FE00DF11D7E
:1014E000649FE00DF11D929FF00D839FF00D749F9E
:1014F000F00D659FF00D9927729FB00DE11DF91F4A
:10150000639FB00DE11DF91FBD01CF0111240895A6
:1015100097FB092E07260AD077FD04D027D006D0E6
:1015200000201AF4709561957F4F0895F6F7909515
:1015300081959F4F089597FB092E05260ED057FDE4
:1015400004D028D00AD0001C38F45095409530952E
:1015500021953F4F4F4F5F4F0895F6F79095809537
:10156000709561957F4F8F4F9F4F0895AA1BBB1BAE
:1015700051E107C0AA1FBB1FA617B70710F0A61B93
:10158000B70B881F991F5A95A9F780959095BC01B4
:10159000CD010895A1E21A2EAA1BBB1BFD010DC0AF
:1015A000AA1FBB1FEE1FFF1FA217B307E407F50713
:1015B00020F0A21BB30BE40BF50B661F771F881FEF
:1015C000991F1A9469F760957095809590959B0185
:1015D000AC01BD01CF010895EE0FFF1F0590F491FE
:1015E000E02D0994A0E0B0E0E8EFFAE00C945B0B8A
:1015F000EC01A880B980CA80DB80A114B104C104C9
:10160000D10441F484E2A82E89EDB82E8BE5C82ED2
:1016100087E0D82EC601B5012DE133EF41E050E05F
:101620000E949B0A27EA31E440E050E00E94690AE8
:101630007B018C01C601B5012DE133EF41E050E0A3
:101640000E949B0ACA01B9012CEE34EF4FEF5FEF05
:101650000E94690A6E0D7F1D801F911F97FF04C0B5
:101660006150704080409048688379838A839B836F
:101670009B01AC015F77B901CA01CDB7DEB7EAE0E3
:101680000C94770B0E94F20A089580E091E00E948A
:10169000F20A0895609300017093010180930201A2
:1016A0009093030108952F923F924F925F926F9211
:1016B0007F928F929F92AF92BF92CF92DF92EF92E2
:1016C000FF920F931F93CF93DF93CDB7DEB7CA1B63
:1016D000DB0B0FB6F894DEBF0FBECDBF09942A888E
:1016E000398848885F846E847D848C849B84AA8436
:1016F000B984C884DF80EE80FD800C811B81AA81C3
:10170000B981CE0FD11D0FB6F894DEBF0FBECDBF8D
:08171000ED010895F894FFCFEC
:10171800010000000100000000E302DB02DF02001C
:00000001FF
